{
  "_format": "hh-sol-artifact-1",
  "contractName": "MasterChef",
  "sourceName": "contracts/MasterChef.sol",
  "abi": [
    {
      "inputs": [
        {
          "internalType": "contract GreenFarmToken",
          "name": "_gft",
          "type": "address"
        },
        {
          "internalType": "contract GreenGovToken",
          "name": "_ggt",
          "type": "address"
        },
        {
          "internalType": "address",
          "name": "_devaddr",
          "type": "address"
        },
        {
          "internalType": "uint256",
          "name": "_gftPerBlock",
          "type": "uint256"
        },
        {
          "internalType": "uint256",
          "name": "_startBlock",
          "type": "uint256"
        }
      ],
      "stateMutability": "nonpayable",
      "type": "constructor"
    },
    {
      "anonymous": false,
      "inputs": [
        {
          "indexed": true,
          "internalType": "address",
          "name": "user",
          "type": "address"
        },
        {
          "indexed": true,
          "internalType": "uint256",
          "name": "pid",
          "type": "uint256"
        },
        {
          "indexed": false,
          "internalType": "uint256",
          "name": "amount",
          "type": "uint256"
        }
      ],
      "name": "Deposit",
      "type": "event"
    },
    {
      "anonymous": false,
      "inputs": [
        {
          "indexed": true,
          "internalType": "address",
          "name": "user",
          "type": "address"
        },
        {
          "indexed": true,
          "internalType": "uint256",
          "name": "pid",
          "type": "uint256"
        },
        {
          "indexed": false,
          "internalType": "uint256",
          "name": "amount",
          "type": "uint256"
        }
      ],
      "name": "EmergencyWithdraw",
      "type": "event"
    },
    {
      "anonymous": false,
      "inputs": [
        {
          "indexed": true,
          "internalType": "address",
          "name": "previousOwner",
          "type": "address"
        },
        {
          "indexed": true,
          "internalType": "address",
          "name": "newOwner",
          "type": "address"
        }
      ],
      "name": "OwnershipTransferred",
      "type": "event"
    },
    {
      "anonymous": false,
      "inputs": [
        {
          "indexed": true,
          "internalType": "address",
          "name": "user",
          "type": "address"
        },
        {
          "indexed": true,
          "internalType": "uint256",
          "name": "pid",
          "type": "uint256"
        },
        {
          "indexed": false,
          "internalType": "uint256",
          "name": "amount",
          "type": "uint256"
        }
      ],
      "name": "Withdraw",
      "type": "event"
    },
    {
      "inputs": [],
      "name": "BONUS_MULTIPLIER",
      "outputs": [
        {
          "internalType": "uint256",
          "name": "",
          "type": "uint256"
        }
      ],
      "stateMutability": "view",
      "type": "function"
    },
    {
      "inputs": [
        {
          "internalType": "uint256",
          "name": "_allocPoint",
          "type": "uint256"
        },
        {
          "internalType": "contract IBEP20",
          "name": "_lpToken",
          "type": "address"
        },
        {
          "internalType": "bool",
          "name": "_withUpdate",
          "type": "bool"
        }
      ],
      "name": "add",
      "outputs": [],
      "stateMutability": "nonpayable",
      "type": "function"
    },
    {
      "inputs": [
        {
          "internalType": "uint256",
          "name": "_pid",
          "type": "uint256"
        },
        {
          "internalType": "uint256",
          "name": "_amount",
          "type": "uint256"
        }
      ],
      "name": "deposit",
      "outputs": [],
      "stateMutability": "nonpayable",
      "type": "function"
    },
    {
      "inputs": [
        {
          "internalType": "address",
          "name": "_devaddr",
          "type": "address"
        }
      ],
      "name": "dev",
      "outputs": [],
      "stateMutability": "nonpayable",
      "type": "function"
    },
    {
      "inputs": [],
      "name": "devaddr",
      "outputs": [
        {
          "internalType": "address",
          "name": "",
          "type": "address"
        }
      ],
      "stateMutability": "view",
      "type": "function"
    },
    {
      "inputs": [
        {
          "internalType": "uint256",
          "name": "_pid",
          "type": "uint256"
        }
      ],
      "name": "emergencyWithdraw",
      "outputs": [],
      "stateMutability": "nonpayable",
      "type": "function"
    },
    {
      "inputs": [
        {
          "internalType": "uint256",
          "name": "_amount",
          "type": "uint256"
        }
      ],
      "name": "enterStaking",
      "outputs": [],
      "stateMutability": "nonpayable",
      "type": "function"
    },
    {
      "inputs": [
        {
          "internalType": "uint256",
          "name": "_from",
          "type": "uint256"
        },
        {
          "internalType": "uint256",
          "name": "_to",
          "type": "uint256"
        }
      ],
      "name": "getMultiplier",
      "outputs": [
        {
          "internalType": "uint256",
          "name": "",
          "type": "uint256"
        }
      ],
      "stateMutability": "view",
      "type": "function"
    },
    {
      "inputs": [],
      "name": "gft",
      "outputs": [
        {
          "internalType": "contract GreenFarmToken",
          "name": "",
          "type": "address"
        }
      ],
      "stateMutability": "view",
      "type": "function"
    },
    {
      "inputs": [],
      "name": "gftPerBlock",
      "outputs": [
        {
          "internalType": "uint256",
          "name": "",
          "type": "uint256"
        }
      ],
      "stateMutability": "view",
      "type": "function"
    },
    {
      "inputs": [],
      "name": "ggt",
      "outputs": [
        {
          "internalType": "contract GreenGovToken",
          "name": "",
          "type": "address"
        }
      ],
      "stateMutability": "view",
      "type": "function"
    },
    {
      "inputs": [
        {
          "internalType": "uint256",
          "name": "_amount",
          "type": "uint256"
        }
      ],
      "name": "leaveStaking",
      "outputs": [],
      "stateMutability": "nonpayable",
      "type": "function"
    },
    {
      "inputs": [],
      "name": "massUpdatePools",
      "outputs": [],
      "stateMutability": "nonpayable",
      "type": "function"
    },
    {
      "inputs": [
        {
          "internalType": "uint256",
          "name": "_pid",
          "type": "uint256"
        }
      ],
      "name": "migrate",
      "outputs": [],
      "stateMutability": "nonpayable",
      "type": "function"
    },
    {
      "inputs": [],
      "name": "migrator",
      "outputs": [
        {
          "internalType": "contract IMigratorChef",
          "name": "",
          "type": "address"
        }
      ],
      "stateMutability": "view",
      "type": "function"
    },
    {
      "inputs": [],
      "name": "owner",
      "outputs": [
        {
          "internalType": "address",
          "name": "",
          "type": "address"
        }
      ],
      "stateMutability": "view",
      "type": "function"
    },
    {
      "inputs": [
        {
          "internalType": "uint256",
          "name": "_pid",
          "type": "uint256"
        },
        {
          "internalType": "address",
          "name": "_user",
          "type": "address"
        }
      ],
      "name": "pendingCake",
      "outputs": [
        {
          "internalType": "uint256",
          "name": "",
          "type": "uint256"
        }
      ],
      "stateMutability": "view",
      "type": "function"
    },
    {
      "inputs": [
        {
          "internalType": "uint256",
          "name": "",
          "type": "uint256"
        }
      ],
      "name": "poolInfo",
      "outputs": [
        {
          "internalType": "contract IBEP20",
          "name": "lpToken",
          "type": "address"
        },
        {
          "internalType": "uint256",
          "name": "allocPoint",
          "type": "uint256"
        },
        {
          "internalType": "uint256",
          "name": "lastRewardBlock",
          "type": "uint256"
        },
        {
          "internalType": "uint256",
          "name": "accCakePerShare",
          "type": "uint256"
        }
      ],
      "stateMutability": "view",
      "type": "function"
    },
    {
      "inputs": [],
      "name": "poolLength",
      "outputs": [
        {
          "internalType": "uint256",
          "name": "",
          "type": "uint256"
        }
      ],
      "stateMutability": "view",
      "type": "function"
    },
    {
      "inputs": [],
      "name": "renounceOwnership",
      "outputs": [],
      "stateMutability": "nonpayable",
      "type": "function"
    },
    {
      "inputs": [
        {
          "internalType": "uint256",
          "name": "_pid",
          "type": "uint256"
        },
        {
          "internalType": "uint256",
          "name": "_allocPoint",
          "type": "uint256"
        },
        {
          "internalType": "bool",
          "name": "_withUpdate",
          "type": "bool"
        }
      ],
      "name": "set",
      "outputs": [],
      "stateMutability": "nonpayable",
      "type": "function"
    },
    {
      "inputs": [
        {
          "internalType": "contract IMigratorChef",
          "name": "_migrator",
          "type": "address"
        }
      ],
      "name": "setMigrator",
      "outputs": [],
      "stateMutability": "nonpayable",
      "type": "function"
    },
    {
      "inputs": [],
      "name": "startBlock",
      "outputs": [
        {
          "internalType": "uint256",
          "name": "",
          "type": "uint256"
        }
      ],
      "stateMutability": "view",
      "type": "function"
    },
    {
      "inputs": [],
      "name": "totalAllocPoint",
      "outputs": [
        {
          "internalType": "uint256",
          "name": "",
          "type": "uint256"
        }
      ],
      "stateMutability": "view",
      "type": "function"
    },
    {
      "inputs": [
        {
          "internalType": "address",
          "name": "newOwner",
          "type": "address"
        }
      ],
      "name": "transferOwnership",
      "outputs": [],
      "stateMutability": "nonpayable",
      "type": "function"
    },
    {
      "inputs": [
        {
          "internalType": "uint256",
          "name": "multiplierNumber",
          "type": "uint256"
        }
      ],
      "name": "updateMultiplier",
      "outputs": [],
      "stateMutability": "nonpayable",
      "type": "function"
    },
    {
      "inputs": [
        {
          "internalType": "uint256",
          "name": "_pid",
          "type": "uint256"
        }
      ],
      "name": "updatePool",
      "outputs": [],
      "stateMutability": "nonpayable",
      "type": "function"
    },
    {
      "inputs": [
        {
          "internalType": "uint256",
          "name": "",
          "type": "uint256"
        },
        {
          "internalType": "address",
          "name": "",
          "type": "address"
        }
      ],
      "name": "userInfo",
      "outputs": [
        {
          "internalType": "uint256",
          "name": "amount",
          "type": "uint256"
        },
        {
          "internalType": "uint256",
          "name": "rewardDebt",
          "type": "uint256"
        }
      ],
      "stateMutability": "view",
      "type": "function"
    },
    {
      "inputs": [
        {
          "internalType": "uint256",
          "name": "_pid",
          "type": "uint256"
        },
        {
          "internalType": "uint256",
          "name": "_amount",
          "type": "uint256"
        }
      ],
      "name": "withdraw",
      "outputs": [],
      "stateMutability": "nonpayable",
      "type": "function"
    }
  ],
  "bytecode": "0x60806040526001600555600060095534801561001a57600080fd5b5060405162002b0a38038062002b0a833981810160405260a081101561003f57600080fd5b5080516020820151604083015160608401516080909401519293919290919060006100686101e2565b600080546001600160a01b0319166001600160a01b0383169081178255604051929350917f8be0079c531659141344cd1fd0a4f28419497f9722a3daafe3b4186f6b6457e0908290a350600180546001600160a01b03199081166001600160a01b03978816908117835560028054831697891697909717909655600380548216958816959095179094556004928355600a829055604080516080810182529586526103e86020870181815291870193845260006060880181815260078054958601815590915296517fa66cc928b5edb82af9bd49922954155ab7b0942694bea4ce44661d9a8736c688939095029283018054909616949097169390931790935590517fa66cc928b5edb82af9bd49922954155ab7b0942694bea4ce44661d9a8736c689830155517fa66cc928b5edb82af9bd49922954155ab7b0942694bea4ce44661d9a8736c68a82015590517fa66cc928b5edb82af9bd49922954155ab7b0942694bea4ce44661d9a8736c68b909101556009556101e6565b3390565b61291480620001f66000396000f3fe608060405234801561001057600080fd5b50600436106101cf5760003560e01c80635ffe6146116101045780638da5cb5b116100a2578063d49e77cd11610071578063d49e77cd1461050c578063e2bbb15814610514578063e70f727e14610537578063f2fde38b1461053f576101cf565b80638da5cb5b146104875780638dbb1e3a1461048f5780638e87e4f7146104b257806393f1a40b146104ba576101cf565b8063715018a6116100de578063715018a61461043c5780637cd07e47146104445780638aa285501461044c5780638d88a90e14610454576101cf565b80635ffe6146146103ec578063630b5ba11461040957806364482f7914610411576101cf565b806323cf311811610171578063454b06081161014b578063454b06081461038d57806348cd4cb1146103aa57806351eb05a6146103b25780635312ea8e146103cf576101cf565b806323cf31181461031a57806341441d3b1461034d578063441a3e701461036a576101cf565b80631175a1dd116101ad5780631175a1dd1461023e5780631526fe271461027757806317caf6f1146102d15780631eaaa045146102d9576101cf565b8063060bbbd9146101d4578063081e3eda146102055780631058d2811461021f575b600080fd5b6101dc610572565b6040805173ffffffffffffffffffffffffffffffffffffffff9092168252519081900360200190f35b61020d61058e565b60408051918252519081900360200190f35b61023c6004803603602081101561023557600080fd5b5035610594565b005b61020d6004803603604081101561025457600080fd5b508035906020013573ffffffffffffffffffffffffffffffffffffffff166107d0565b6102946004803603602081101561028d57600080fd5b5035610960565b6040805173ffffffffffffffffffffffffffffffffffffffff90951685526020850193909352838301919091526060830152519081900360800190f35b61020d6109ae565b61023c600480360360608110156102ef57600080fd5b5080359073ffffffffffffffffffffffffffffffffffffffff602082013516906040013515156109b4565b61023c6004803603602081101561033057600080fd5b503573ffffffffffffffffffffffffffffffffffffffff16610baf565b61023c6004803603602081101561036357600080fd5b5035610c9e565b61023c6004803603604081101561038057600080fd5b5080359060200135610e65565b61023c600480360360208110156103a357600080fd5b5035611056565b61020d6113b1565b61023c600480360360208110156103c857600080fd5b50356113b7565b61023c600480360360208110156103e557600080fd5b5035611643565b61023c6004803603602081101561040257600080fd5b50356116eb565b61023c611798565b61023c6004803603606081101561042757600080fd5b508035906020810135906040013515156117bb565b61023c6118e8565b6101dc6119ff565b61020d611a1b565b61023c6004803603602081101561046a57600080fd5b503573ffffffffffffffffffffffffffffffffffffffff16611a21565b6101dc611aee565b61020d600480360360408110156104a557600080fd5b5080359060200135611b0a565b61020d611b25565b6104f3600480360360408110156104d057600080fd5b508035906020013573ffffffffffffffffffffffffffffffffffffffff16611b2b565b6040805192835260208301919091528051918290030190f35b6101dc611b4f565b61023c6004803603604081101561052a57600080fd5b5080359060200135611b6b565b6101dc611cf6565b61023c6004803603602081101561055557600080fd5b503573ffffffffffffffffffffffffffffffffffffffff16611d12565b60025473ffffffffffffffffffffffffffffffffffffffff1681565b60075490565b600060076000815481106105a457fe5b600091825260208083203384527f5eff886ea0ce6ca488a3d6e336d6c0f75f46d19b42c06ce5ee98e42c96d256c7909152604090922080546004909202909201925083111561065457604080517f08c379a000000000000000000000000000000000000000000000000000000000815260206004820152601260248201527f77697468647261773a206e6f7420676f6f640000000000000000000000000000604482015290519081900360640190fd5b61065e60006113b7565b6000610698826001015461069264e8d4a5100061068c87600301548760000154611eb390919063ffffffff16565b90611f26565b90611fa7565b905080156106aa576106aa338261201e565b83156106e15781546106bc9085611fa7565b825582546106e19073ffffffffffffffffffffffffffffffffffffffff1633866120b5565b600383015482546106fc9164e8d4a510009161068c91611eb3565b6001830155600254604080517f9dc29fac00000000000000000000000000000000000000000000000000000000815233600482015260248101879052905173ffffffffffffffffffffffffffffffffffffffff90921691639dc29fac9160448082019260009290919082900301818387803b15801561077a57600080fd5b505af115801561078e573d6000803e3d6000fd5b5050604080518781529051600093503392507ff279e6a1f5e320cca91135676d9cb6e44ca8a08c0b88342bcdb1144f6511b5689181900360200190a350505050565b600080600784815481106107e057fe5b6000918252602080832087845260088252604080852073ffffffffffffffffffffffffffffffffffffffff898116875290845281862060049586029093016003810154815484517f70a082310000000000000000000000000000000000000000000000000000000081523098810198909852935191985093969395939492909116926370a08231926024808301939192829003018186803b15801561088457600080fd5b505afa158015610898573d6000803e3d6000fd5b505050506040513d60208110156108ae57600080fd5b50516002850154909150431180156108c557508015155b1561092b5760006108da856002015443611b0a565b9050600061090760095461068c886001015461090160045487611eb390919063ffffffff16565b90611eb3565b905061092661091f8461068c8464e8d4a51000611eb3565b8590612147565b935050505b610953836001015461069264e8d4a5100061068c868860000154611eb390919063ffffffff16565b9450505050505b92915050565b6007818154811061096d57fe5b6000918252602090912060049091020180546001820154600283015460039093015473ffffffffffffffffffffffffffffffffffffffff9092169350919084565b60095481565b6109bc6121bb565b73ffffffffffffffffffffffffffffffffffffffff166109da611aee565b73ffffffffffffffffffffffffffffffffffffffff1614610a5c57604080517f08c379a000000000000000000000000000000000000000000000000000000000815260206004820181905260248201527f4f776e61626c653a2063616c6c6572206973206e6f7420746865206f776e6572604482015290519081900360640190fd5b8015610a6a57610a6a611798565b6000600a544311610a7d57600a54610a7f565b435b600954909150610a8f9085612147565b6009556040805160808101825273ffffffffffffffffffffffffffffffffffffffff85811682526020820187815292820184815260006060840181815260078054600181018255925293517fa66cc928b5edb82af9bd49922954155ab7b0942694bea4ce44661d9a8736c688600490920291820180547fffffffffffffffffffffffff000000000000000000000000000000000000000016919094161790925592517fa66cc928b5edb82af9bd49922954155ab7b0942694bea4ce44661d9a8736c68982015591517fa66cc928b5edb82af9bd49922954155ab7b0942694bea4ce44661d9a8736c68a830155517fa66cc928b5edb82af9bd49922954155ab7b0942694bea4ce44661d9a8736c68b90910155610ba96121bf565b50505050565b610bb76121bb565b73ffffffffffffffffffffffffffffffffffffffff16610bd5611aee565b73ffffffffffffffffffffffffffffffffffffffff1614610c5757604080517f08c379a000000000000000000000000000000000000000000000000000000000815260206004820181905260248201527f4f776e61626c653a2063616c6c6572206973206e6f7420746865206f776e6572604482015290519081900360640190fd5b600680547fffffffffffffffffffffffff00000000000000000000000000000000000000001673ffffffffffffffffffffffffffffffffffffffff92909216919091179055565b60006007600081548110610cae57fe5b600091825260208083203384527f5eff886ea0ce6ca488a3d6e336d6c0f75f46d19b42c06ce5ee98e42c96d256c790915260408320600490920201925090610cf5906113b7565b805415610d3e576000610d2a826001015461069264e8d4a5100061068c87600301548760000154611eb390919063ffffffff16565b90508015610d3c57610d3c338261201e565b505b8215610d77578154610d689073ffffffffffffffffffffffffffffffffffffffff16333086612284565b8054610d749084612147565b81555b60038201548154610d929164e8d4a510009161068c91611eb3565b6001820155600254604080517f40c10f1900000000000000000000000000000000000000000000000000000000815233600482015260248101869052905173ffffffffffffffffffffffffffffffffffffffff909216916340c10f199160448082019260009290919082900301818387803b158015610e1057600080fd5b505af1158015610e24573d6000803e3d6000fd5b5050604080518681529051600093503392507f90890809c654f11d6e72a28fa60149770a0d11ec6c92319d6ceb2bb0a4ea1a159181900360200190a3505050565b81610ed157604080517f08c379a000000000000000000000000000000000000000000000000000000000815260206004820152601960248201527f77697468647261772047465420627920756e7374616b696e6700000000000000604482015290519081900360640190fd5b600060078381548110610ee057fe5b600091825260208083208684526008825260408085203386529092529220805460049092029092019250831115610f7857604080517f08c379a000000000000000000000000000000000000000000000000000000000815260206004820152601260248201527f77697468647261773a206e6f7420676f6f640000000000000000000000000000604482015290519081900360640190fd5b610f81846113b7565b6000610faf826001015461069264e8d4a5100061068c87600301548760000154611eb390919063ffffffff16565b90508015610fc157610fc1338261201e565b8315610ff8578154610fd39085611fa7565b82558254610ff89073ffffffffffffffffffffffffffffffffffffffff1633866120b5565b600383015482546110139164e8d4a510009161068c91611eb3565b6001830155604080518581529051869133917ff279e6a1f5e320cca91135676d9cb6e44ca8a08c0b88342bcdb1144f6511b5689181900360200190a35050505050565b60065473ffffffffffffffffffffffffffffffffffffffff166110da57604080517f08c379a000000000000000000000000000000000000000000000000000000000815260206004820152601460248201527f6d6967726174653a206e6f206d69677261746f72000000000000000000000000604482015290519081900360640190fd5b6000600782815481106110e957fe5b600091825260208083206004928302018054604080517f70a0823100000000000000000000000000000000000000000000000000000000815230958101959095525191955073ffffffffffffffffffffffffffffffffffffffff16939284926370a0823192602480840193829003018186803b15801561116857600080fd5b505afa15801561117c573d6000803e3d6000fd5b505050506040513d602081101561119257600080fd5b50516006549091506111be9073ffffffffffffffffffffffffffffffffffffffff848116911683612319565b600654604080517fce5494bb00000000000000000000000000000000000000000000000000000000815273ffffffffffffffffffffffffffffffffffffffff85811660048301529151600093929092169163ce5494bb9160248082019260209290919082900301818787803b15801561123657600080fd5b505af115801561124a573d6000803e3d6000fd5b505050506040513d602081101561126057600080fd5b5051604080517f70a08231000000000000000000000000000000000000000000000000000000008152306004820152905191925073ffffffffffffffffffffffffffffffffffffffff8316916370a0823191602480820192602092909190829003018186803b1580156112d257600080fd5b505afa1580156112e6573d6000803e3d6000fd5b505050506040513d60208110156112fc57600080fd5b5051821461136b57604080517f08c379a000000000000000000000000000000000000000000000000000000000815260206004820152600c60248201527f6d6967726174653a206261640000000000000000000000000000000000000000604482015290519081900360640190fd5b83547fffffffffffffffffffffffff00000000000000000000000000000000000000001673ffffffffffffffffffffffffffffffffffffffff9190911617909255505050565b600a5481565b6000600782815481106113c657fe5b90600052602060002090600402019050806002015443116113e75750611640565b8054604080517f70a08231000000000000000000000000000000000000000000000000000000008152306004820152905160009273ffffffffffffffffffffffffffffffffffffffff16916370a08231916024808301926020929190829003018186803b15801561145757600080fd5b505afa15801561146b573d6000803e3d6000fd5b505050506040513d602081101561148157600080fd5b5051905080611497575043600290910155611640565b60006114a7836002015443611b0a565b905060006114ce60095461068c866001015461090160045487611eb390919063ffffffff16565b60015460035491925073ffffffffffffffffffffffffffffffffffffffff908116916340c10f19911661150284600a611f26565b6040518363ffffffff1660e01b8152600401808373ffffffffffffffffffffffffffffffffffffffff16815260200182815260200192505050600060405180830381600087803b15801561155557600080fd5b505af1158015611569573d6000803e3d6000fd5b5050600154600254604080517f40c10f1900000000000000000000000000000000000000000000000000000000815273ffffffffffffffffffffffffffffffffffffffff92831660048201526024810187905290519190921693506340c10f199250604480830192600092919082900301818387803b1580156115eb57600080fd5b505af11580156115ff573d6000803e3d6000fd5b5050505061162d6116228461068c64e8d4a5100085611eb390919063ffffffff16565b600386015490612147565b6003850155505043600290920191909155505b50565b60006007828154811061165257fe5b600091825260208083208584526008825260408085203380875293529093208054600490930290930180549094506116a49273ffffffffffffffffffffffffffffffffffffffff9190911691906120b5565b80546040805191825251849133917fbb757047c2b5f3974fe26b7c10f732e7bce710b0952a71082702781e62ae05959181900360200190a360008082556001909101555050565b6116f36121bb565b73ffffffffffffffffffffffffffffffffffffffff16611711611aee565b73ffffffffffffffffffffffffffffffffffffffff161461179357604080517f08c379a000000000000000000000000000000000000000000000000000000000815260206004820181905260248201527f4f776e61626c653a2063616c6c6572206973206e6f7420746865206f776e6572604482015290519081900360640190fd5b600555565b60075460005b818110156117b7576117af816113b7565b60010161179e565b5050565b6117c36121bb565b73ffffffffffffffffffffffffffffffffffffffff166117e1611aee565b73ffffffffffffffffffffffffffffffffffffffff161461186357604080517f08c379a000000000000000000000000000000000000000000000000000000000815260206004820181905260248201527f4f776e61626c653a2063616c6c6572206973206e6f7420746865206f776e6572604482015290519081900360640190fd5b801561187157611871611798565b60006007848154811061188057fe5b906000526020600020906004020160010154905082600785815481106118a257fe5b906000526020600020906004020160010181905550828114610ba9576118dd836118d783600954611fa790919063ffffffff16565b90612147565b600955610ba96121bf565b6118f06121bb565b73ffffffffffffffffffffffffffffffffffffffff1661190e611aee565b73ffffffffffffffffffffffffffffffffffffffff161461199057604080517f08c379a000000000000000000000000000000000000000000000000000000000815260206004820181905260248201527f4f776e61626c653a2063616c6c6572206973206e6f7420746865206f776e6572604482015290519081900360640190fd5b6000805460405173ffffffffffffffffffffffffffffffffffffffff909116907f8be0079c531659141344cd1fd0a4f28419497f9722a3daafe3b4186f6b6457e0908390a3600080547fffffffffffffffffffffffff0000000000000000000000000000000000000000169055565b60065473ffffffffffffffffffffffffffffffffffffffff1681565b60055481565b60035473ffffffffffffffffffffffffffffffffffffffff163314611aa757604080517f08c379a000000000000000000000000000000000000000000000000000000000815260206004820152600960248201527f6465763a207775743f0000000000000000000000000000000000000000000000604482015290519081900360640190fd5b600380547fffffffffffffffffffffffff00000000000000000000000000000000000000001673ffffffffffffffffffffffffffffffffffffffff92909216919091179055565b60005473ffffffffffffffffffffffffffffffffffffffff1690565b600554600090611b1e906109018486611fa7565b9392505050565b60045481565b60086020908152600092835260408084209091529082529020805460019091015482565b60035473ffffffffffffffffffffffffffffffffffffffff1681565b81611bd757604080517f08c379a000000000000000000000000000000000000000000000000000000000815260206004820152601660248201527f6465706f73697420474654206279207374616b696e6700000000000000000000604482015290519081900360640190fd5b600060078381548110611be657fe5b60009182526020808320868452600882526040808520338652909252922060049091029091019150611c17846113b7565b805415611c60576000611c4c826001015461069264e8d4a5100061068c87600301548760000154611eb390919063ffffffff16565b90508015611c5e57611c5e338261201e565b505b8215611c99578154611c8a9073ffffffffffffffffffffffffffffffffffffffff16333086612284565b8054611c969084612147565b81555b60038201548154611cb49164e8d4a510009161068c91611eb3565b6001820155604080518481529051859133917f90890809c654f11d6e72a28fa60149770a0d11ec6c92319d6ceb2bb0a4ea1a159181900360200190a350505050565b60015473ffffffffffffffffffffffffffffffffffffffff1681565b611d1a6121bb565b73ffffffffffffffffffffffffffffffffffffffff16611d38611aee565b73ffffffffffffffffffffffffffffffffffffffff1614611dba57604080517f08c379a000000000000000000000000000000000000000000000000000000000815260206004820181905260248201527f4f776e61626c653a2063616c6c6572206973206e6f7420746865206f776e6572604482015290519081900360640190fd5b73ffffffffffffffffffffffffffffffffffffffff8116611e26576040517f08c379a000000000000000000000000000000000000000000000000000000000815260040180806020018281038252602681526020018061283c6026913960400191505060405180910390fd5b6000805460405173ffffffffffffffffffffffffffffffffffffffff808516939216917f8be0079c531659141344cd1fd0a4f28419497f9722a3daafe3b4186f6b6457e091a3600080547fffffffffffffffffffffffff00000000000000000000000000000000000000001673ffffffffffffffffffffffffffffffffffffffff92909216919091179055565b600082611ec25750600061095a565b82820282848281611ecf57fe5b0414611b1e576040517f08c379a00000000000000000000000000000000000000000000000000000000081526004018080602001828103825260218152602001806128886021913960400191505060405180910390fd5b6000808211611f9657604080517f08c379a000000000000000000000000000000000000000000000000000000000815260206004820152601a60248201527f536166654d6174683a206469766973696f6e206279207a65726f000000000000604482015290519081900360640190fd5b818381611f9f57fe5b049392505050565b60008282111561201857604080517f08c379a000000000000000000000000000000000000000000000000000000000815260206004820152601e60248201527f536166654d6174683a207375627472616374696f6e206f766572666c6f770000604482015290519081900360640190fd5b50900390565b600254604080517fa2e6ddcc00000000000000000000000000000000000000000000000000000000815273ffffffffffffffffffffffffffffffffffffffff8581166004830152602482018590529151919092169163a2e6ddcc91604480830192600092919082900301818387803b15801561209957600080fd5b505af11580156120ad573d6000803e3d6000fd5b505050505050565b6040805173ffffffffffffffffffffffffffffffffffffffff8416602482015260448082018490528251808303909101815260649091019091526020810180517bffffffffffffffffffffffffffffffffffffffffffffffffffffffff167fa9059cbb000000000000000000000000000000000000000000000000000000001790526121429084906124a3565b505050565b600082820183811015611b1e57604080517f08c379a000000000000000000000000000000000000000000000000000000000815260206004820152601b60248201527f536166654d6174683a206164646974696f6e206f766572666c6f770000000000604482015290519081900360640190fd5b3390565b600754600060015b8281101561220a57612200600782815481106121df57fe5b9060005260206000209060040201600101548361214790919063ffffffff16565b91506001016121c7565b5080156117b75761221c816003611f26565b9050612256816118d7600760008154811061223357fe5b906000526020600020906004020160010154600954611fa790919063ffffffff16565b60098190555080600760008154811061226b57fe5b9060005260206000209060040201600101819055505050565b6040805173ffffffffffffffffffffffffffffffffffffffff80861660248301528416604482015260648082018490528251808303909101815260849091019091526020810180517bffffffffffffffffffffffffffffffffffffffffffffffffffffffff167f23b872dd00000000000000000000000000000000000000000000000000000000179052610ba99085906124a3565b8015806123c55750604080517fdd62ed3e00000000000000000000000000000000000000000000000000000000815230600482015273ffffffffffffffffffffffffffffffffffffffff848116602483015291519185169163dd62ed3e91604480820192602092909190829003018186803b15801561239757600080fd5b505afa1580156123ab573d6000803e3d6000fd5b505050506040513d60208110156123c157600080fd5b5051155b61241a576040517f08c379a00000000000000000000000000000000000000000000000000000000081526004018080602001828103825260368152602001806128a96036913960400191505060405180910390fd5b6040805173ffffffffffffffffffffffffffffffffffffffff8416602482015260448082018490528251808303909101815260649091019091526020810180517bffffffffffffffffffffffffffffffffffffffffffffffffffffffff167f095ea7b3000000000000000000000000000000000000000000000000000000001790526121429084905b6060612505826040518060400160405280602081526020017f5361666542455032303a206c6f772d6c6576656c2063616c6c206661696c65648152508573ffffffffffffffffffffffffffffffffffffffff1661257b9092919063ffffffff16565b8051909150156121425780806020019051602081101561252457600080fd5b5051612142576040517f08c379a000000000000000000000000000000000000000000000000000000000815260040180806020018281038252602a815260200180612812602a913960400191505060405180910390fd5b606061258a8484600085612592565b949350505050565b6060824710156125ed576040517f08c379a00000000000000000000000000000000000000000000000000000000081526004018080602001828103825260268152602001806128626026913960400191505060405180910390fd5b6125f68561274d565b61266157604080517f08c379a000000000000000000000000000000000000000000000000000000000815260206004820152601d60248201527f416464726573733a2063616c6c20746f206e6f6e2d636f6e7472616374000000604482015290519081900360640190fd5b600060608673ffffffffffffffffffffffffffffffffffffffff1685876040518082805190602001908083835b602083106126cb57805182527fffffffffffffffffffffffffffffffffffffffffffffffffffffffffffffffe0909201916020918201910161268e565b6001836020036101000a03801982511681845116808217855250505050505090500191505060006040518083038185875af1925050503d806000811461272d576040519150601f19603f3d011682016040523d82523d6000602084013e612732565b606091505b5091509150612742828286612753565b979650505050505050565b3b151590565b60608315612762575081611b1e565b8251156127725782518084602001fd5b816040517f08c379a00000000000000000000000000000000000000000000000000000000081526004018080602001828103825283818151815260200191508051906020019080838360005b838110156127d65781810151838201526020016127be565b50505050905090810190601f1680156128035780820380516001836020036101000a031916815260200191505b509250505060405180910390fdfe5361666542455032303a204245503230206f7065726174696f6e20646964206e6f7420737563636565644f776e61626c653a206e6577206f776e657220697320746865207a65726f2061646472657373416464726573733a20696e73756666696369656e742062616c616e636520666f722063616c6c536166654d6174683a206d756c7469706c69636174696f6e206f766572666c6f775361666542455032303a20617070726f76652066726f6d206e6f6e2d7a65726f20746f206e6f6e2d7a65726f20616c6c6f77616e6365a2646970667358221220f9c1e3e88791c4f6cf04a31b0ef51390282ec8f6948956e725767ba4610138c364736f6c634300060c0033",
  "linkReferences": {},
  "deployedLinkReferences": {}
}