{
  "_format": "hh-sol-artifact-1",
  "contractName": "PancakeSwapLottery",
  "sourceName": "contracts/PancakeSwapLottery.sol",
  "abi": [
    {
      "inputs": [
        {
          "internalType": "address",
          "name": "_GFTTokenAddress",
          "type": "address"
        },
        {
          "internalType": "address",
          "name": "_randomGeneratorAddress",
          "type": "address"
        }
      ],
      "stateMutability": "nonpayable",
      "type": "constructor"
    },
    {
      "anonymous": false,
      "inputs": [
        {
          "indexed": false,
          "internalType": "address",
          "name": "token",
          "type": "address"
        },
        {
          "indexed": false,
          "internalType": "uint256",
          "name": "amount",
          "type": "uint256"
        }
      ],
      "name": "AdminTokenRecovery",
      "type": "event"
    },
    {
      "anonymous": false,
      "inputs": [
        {
          "indexed": true,
          "internalType": "uint256",
          "name": "lotteryId",
          "type": "uint256"
        }
      ],
      "name": "LotteryClose",
      "type": "event"
    },
    {
      "anonymous": false,
      "inputs": [
        {
          "indexed": true,
          "internalType": "uint256",
          "name": "lotteryId",
          "type": "uint256"
        },
        {
          "indexed": false,
          "internalType": "uint256",
          "name": "finalNumber",
          "type": "uint256"
        }
      ],
      "name": "LotteryNumberDrawn",
      "type": "event"
    },
    {
      "anonymous": false,
      "inputs": [
        {
          "indexed": true,
          "internalType": "uint256",
          "name": "lotteryId",
          "type": "uint256"
        },
        {
          "indexed": false,
          "internalType": "uint256",
          "name": "startTime",
          "type": "uint256"
        },
        {
          "indexed": false,
          "internalType": "uint256",
          "name": "endTime",
          "type": "uint256"
        },
        {
          "indexed": false,
          "internalType": "uint256",
          "name": "priceTicketInGFT",
          "type": "uint256"
        }
      ],
      "name": "LotteryOpen",
      "type": "event"
    },
    {
      "anonymous": false,
      "inputs": [
        {
          "indexed": false,
          "internalType": "address",
          "name": "operator",
          "type": "address"
        },
        {
          "indexed": false,
          "internalType": "address",
          "name": "treasury",
          "type": "address"
        },
        {
          "indexed": false,
          "internalType": "address",
          "name": "injector",
          "type": "address"
        },
        {
          "indexed": false,
          "internalType": "address",
          "name": "NFT",
          "type": "address"
        }
      ],
      "name": "NewOperatorAndTreasuryAndInjectorAddresses",
      "type": "event"
    },
    {
      "anonymous": false,
      "inputs": [
        {
          "indexed": true,
          "internalType": "address",
          "name": "randomGenerator",
          "type": "address"
        }
      ],
      "name": "NewRandomGenerator",
      "type": "event"
    },
    {
      "anonymous": false,
      "inputs": [
        {
          "indexed": false,
          "internalType": "uint256",
          "name": "tokenId",
          "type": "uint256"
        }
      ],
      "name": "NewTokenId",
      "type": "event"
    },
    {
      "anonymous": false,
      "inputs": [
        {
          "indexed": true,
          "internalType": "address",
          "name": "previousOwner",
          "type": "address"
        },
        {
          "indexed": true,
          "internalType": "address",
          "name": "newOwner",
          "type": "address"
        }
      ],
      "name": "OwnershipTransferred",
      "type": "event"
    },
    {
      "anonymous": false,
      "inputs": [
        {
          "indexed": true,
          "internalType": "address",
          "name": "claimer",
          "type": "address"
        },
        {
          "indexed": false,
          "internalType": "uint256",
          "name": "lotteryId",
          "type": "uint256"
        },
        {
          "indexed": false,
          "internalType": "uint256",
          "name": "purchaseId",
          "type": "uint256"
        },
        {
          "indexed": false,
          "internalType": "uint32",
          "name": "finalNumber",
          "type": "uint32"
        },
        {
          "indexed": false,
          "internalType": "bool",
          "name": "winningCondition",
          "type": "bool"
        }
      ],
      "name": "TicketsClaim",
      "type": "event"
    },
    {
      "anonymous": false,
      "inputs": [
        {
          "indexed": true,
          "internalType": "address",
          "name": "buyer",
          "type": "address"
        },
        {
          "indexed": true,
          "internalType": "uint256",
          "name": "lotteryId",
          "type": "uint256"
        },
        {
          "indexed": false,
          "internalType": "uint256",
          "name": "numberOfTickets",
          "type": "uint256"
        },
        {
          "indexed": false,
          "internalType": "uint32",
          "name": "purchaseId",
          "type": "uint32"
        }
      ],
      "name": "TicketsPurchase",
      "type": "event"
    },
    {
      "inputs": [],
      "name": "GFTToken",
      "outputs": [
        {
          "internalType": "contract IERC20",
          "name": "",
          "type": "address"
        }
      ],
      "stateMutability": "view",
      "type": "function"
    },
    {
      "inputs": [],
      "name": "MAX_LENGTH_LOTTERY",
      "outputs": [
        {
          "internalType": "uint256",
          "name": "",
          "type": "uint256"
        }
      ],
      "stateMutability": "view",
      "type": "function"
    },
    {
      "inputs": [],
      "name": "MIN_DISCOUNT_DIVISOR",
      "outputs": [
        {
          "internalType": "uint256",
          "name": "",
          "type": "uint256"
        }
      ],
      "stateMutability": "view",
      "type": "function"
    },
    {
      "inputs": [],
      "name": "MIN_LENGTH_LOTTERY",
      "outputs": [
        {
          "internalType": "uint256",
          "name": "",
          "type": "uint256"
        }
      ],
      "stateMutability": "view",
      "type": "function"
    },
    {
      "inputs": [],
      "name": "NFTAddress",
      "outputs": [
        {
          "internalType": "address",
          "name": "",
          "type": "address"
        }
      ],
      "stateMutability": "view",
      "type": "function"
    },
    {
      "inputs": [
        {
          "internalType": "uint256",
          "name": "_lotteryId",
          "type": "uint256"
        },
        {
          "internalType": "uint32",
          "name": "_numberOfTickets",
          "type": "uint32"
        }
      ],
      "name": "buyTickets",
      "outputs": [],
      "stateMutability": "nonpayable",
      "type": "function"
    },
    {
      "inputs": [
        {
          "internalType": "uint256",
          "name": "_discountDivisor",
          "type": "uint256"
        },
        {
          "internalType": "uint256",
          "name": "_priceTicket",
          "type": "uint256"
        },
        {
          "internalType": "uint256",
          "name": "_numberOfTickets",
          "type": "uint256"
        }
      ],
      "name": "calculateTotalPriceForBulkTickets",
      "outputs": [
        {
          "internalType": "uint256",
          "name": "",
          "type": "uint256"
        }
      ],
      "stateMutability": "pure",
      "type": "function"
    },
    {
      "inputs": [
        {
          "internalType": "address",
          "name": "_randomGeneratorAddress",
          "type": "address"
        }
      ],
      "name": "changeRandomGenerator",
      "outputs": [],
      "stateMutability": "nonpayable",
      "type": "function"
    },
    {
      "inputs": [
        {
          "internalType": "uint256",
          "name": "_lotteryId",
          "type": "uint256"
        },
        {
          "internalType": "uint256",
          "name": "_purchaseId",
          "type": "uint256"
        }
      ],
      "name": "claimTickets",
      "outputs": [],
      "stateMutability": "nonpayable",
      "type": "function"
    },
    {
      "inputs": [
        {
          "internalType": "uint256",
          "name": "_lotteryId",
          "type": "uint256"
        }
      ],
      "name": "closeLottery",
      "outputs": [],
      "stateMutability": "nonpayable",
      "type": "function"
    },
    {
      "inputs": [],
      "name": "currentLotteryId",
      "outputs": [
        {
          "internalType": "uint256",
          "name": "",
          "type": "uint256"
        }
      ],
      "stateMutability": "view",
      "type": "function"
    },
    {
      "inputs": [
        {
          "internalType": "uint256",
          "name": "_lotteryId",
          "type": "uint256"
        }
      ],
      "name": "drawFinalNumberAndMakeLotteryClaimable",
      "outputs": [],
      "stateMutability": "nonpayable",
      "type": "function"
    },
    {
      "inputs": [],
      "name": "endNumber",
      "outputs": [
        {
          "internalType": "uint32",
          "name": "",
          "type": "uint32"
        }
      ],
      "stateMutability": "view",
      "type": "function"
    },
    {
      "inputs": [],
      "name": "injectorAddress",
      "outputs": [
        {
          "internalType": "address",
          "name": "",
          "type": "address"
        }
      ],
      "stateMutability": "view",
      "type": "function"
    },
    {
      "inputs": [],
      "name": "maxNumberTicketsPerBuyOrClaim",
      "outputs": [
        {
          "internalType": "uint256",
          "name": "",
          "type": "uint256"
        }
      ],
      "stateMutability": "view",
      "type": "function"
    },
    {
      "inputs": [],
      "name": "maxPriceTicketInGFT",
      "outputs": [
        {
          "internalType": "uint256",
          "name": "",
          "type": "uint256"
        }
      ],
      "stateMutability": "view",
      "type": "function"
    },
    {
      "inputs": [],
      "name": "minPriceTicketInGFT",
      "outputs": [
        {
          "internalType": "uint256",
          "name": "",
          "type": "uint256"
        }
      ],
      "stateMutability": "view",
      "type": "function"
    },
    {
      "inputs": [],
      "name": "operatorAddress",
      "outputs": [
        {
          "internalType": "address",
          "name": "",
          "type": "address"
        }
      ],
      "stateMutability": "view",
      "type": "function"
    },
    {
      "inputs": [],
      "name": "owner",
      "outputs": [
        {
          "internalType": "address",
          "name": "",
          "type": "address"
        }
      ],
      "stateMutability": "view",
      "type": "function"
    },
    {
      "inputs": [],
      "name": "purchaseId",
      "outputs": [
        {
          "internalType": "uint32",
          "name": "",
          "type": "uint32"
        }
      ],
      "stateMutability": "view",
      "type": "function"
    },
    {
      "inputs": [],
      "name": "randomGenerator",
      "outputs": [
        {
          "internalType": "contract IRandomNumberGenerator",
          "name": "",
          "type": "address"
        }
      ],
      "stateMutability": "view",
      "type": "function"
    },
    {
      "inputs": [
        {
          "internalType": "address",
          "name": "_tokenAddress",
          "type": "address"
        },
        {
          "internalType": "uint256",
          "name": "_tokenAmount",
          "type": "uint256"
        }
      ],
      "name": "recoverWrongTokens",
      "outputs": [],
      "stateMutability": "nonpayable",
      "type": "function"
    },
    {
      "inputs": [],
      "name": "renounceOwnership",
      "outputs": [],
      "stateMutability": "nonpayable",
      "type": "function"
    },
    {
      "inputs": [
        {
          "internalType": "uint256",
          "name": "_maxNumberTicketsPerBuy",
          "type": "uint256"
        }
      ],
      "name": "setMaxNumberTicketsPerBuy",
      "outputs": [],
      "stateMutability": "nonpayable",
      "type": "function"
    },
    {
      "inputs": [
        {
          "internalType": "uint256",
          "name": "_minPriceTicketInGFT",
          "type": "uint256"
        },
        {
          "internalType": "uint256",
          "name": "_maxPriceTicketInGFT",
          "type": "uint256"
        }
      ],
      "name": "setMinAndMaxTicketPriceInGFT",
      "outputs": [],
      "stateMutability": "nonpayable",
      "type": "function"
    },
    {
      "inputs": [
        {
          "internalType": "address",
          "name": "_operatorAddress",
          "type": "address"
        },
        {
          "internalType": "address",
          "name": "_treasuryAddress",
          "type": "address"
        },
        {
          "internalType": "address",
          "name": "_injectorAddress",
          "type": "address"
        },
        {
          "internalType": "address",
          "name": "_NFTAddress",
          "type": "address"
        }
      ],
      "name": "setOperatorAndTreasuryAndInjectorAndNFTAddresses",
      "outputs": [],
      "stateMutability": "nonpayable",
      "type": "function"
    },
    {
      "inputs": [
        {
          "internalType": "uint256",
          "name": "_tokenId",
          "type": "uint256"
        }
      ],
      "name": "setTokenId",
      "outputs": [],
      "stateMutability": "nonpayable",
      "type": "function"
    },
    {
      "inputs": [
        {
          "internalType": "uint256",
          "name": "_endTime",
          "type": "uint256"
        },
        {
          "internalType": "uint256",
          "name": "_priceTicketInGFT",
          "type": "uint256"
        },
        {
          "internalType": "uint256",
          "name": "_discountDivisor",
          "type": "uint256"
        },
        {
          "internalType": "uint256",
          "name": "_tokenId",
          "type": "uint256"
        }
      ],
      "name": "startLottery",
      "outputs": [],
      "stateMutability": "nonpayable",
      "type": "function"
    },
    {
      "inputs": [
        {
          "internalType": "address",
          "name": "newOwner",
          "type": "address"
        }
      ],
      "name": "transferOwnership",
      "outputs": [],
      "stateMutability": "nonpayable",
      "type": "function"
    },
    {
      "inputs": [],
      "name": "treasuryAddress",
      "outputs": [
        {
          "internalType": "address",
          "name": "",
          "type": "address"
        }
      ],
      "stateMutability": "view",
      "type": "function"
    },
    {
      "inputs": [],
      "name": "viewCurrentLotteryId",
      "outputs": [
        {
          "internalType": "uint256",
          "name": "",
          "type": "uint256"
        }
      ],
      "stateMutability": "view",
      "type": "function"
    },
    {
      "inputs": [
        {
          "internalType": "uint256",
          "name": "_lotteryId",
          "type": "uint256"
        }
      ],
      "name": "viewLottery",
      "outputs": [
        {
          "components": [
            {
              "internalType": "enum PancakeSwapLottery.Status",
              "name": "status",
              "type": "uint8"
            },
            {
              "internalType": "uint256",
              "name": "startTime",
              "type": "uint256"
            },
            {
              "internalType": "uint256",
              "name": "endTime",
              "type": "uint256"
            },
            {
              "internalType": "uint256",
              "name": "priceTicketInGFT",
              "type": "uint256"
            },
            {
              "internalType": "uint256",
              "name": "discountDivisor",
              "type": "uint256"
            },
            {
              "internalType": "uint256",
              "name": "amountCollectedInGFT",
              "type": "uint256"
            },
            {
              "internalType": "uint32",
              "name": "finalNumber",
              "type": "uint32"
            },
            {
              "internalType": "uint256",
              "name": "tokenId",
              "type": "uint256"
            }
          ],
          "internalType": "struct PancakeSwapLottery.Lottery",
          "name": "",
          "type": "tuple"
        }
      ],
      "stateMutability": "view",
      "type": "function"
    },
    {
      "inputs": [
        {
          "internalType": "address",
          "name": "_user",
          "type": "address"
        },
        {
          "internalType": "uint256",
          "name": "_lotteryId",
          "type": "uint256"
        }
      ],
      "name": "viewUserInfoForLotteryId",
      "outputs": [
        {
          "internalType": "uint256[]",
          "name": "",
          "type": "uint256[]"
        },
        {
          "internalType": "uint256[]",
          "name": "",
          "type": "uint256[]"
        },
        {
          "internalType": "bool[]",
          "name": "",
          "type": "bool[]"
        }
      ],
      "stateMutability": "view",
      "type": "function"
    }
  ],
  "bytecode": "0x6080604052600780546001600160401b031916905560646008556802b5e3af16b18800006009556611c37937e08000600a553480156200003e57600080fd5b5060405162003b5038038062003b50833981016040819052620000619162000112565b60016000556200007133620000a3565b600b80546001600160a01b039384166001600160a01b031991821617909155600c805492909316911617905562000149565b600180546001600160a01b038381166001600160a01b0319831681179093556040519116919082907f8be0079c531659141344cd1fd0a4f28419497f9722a3daafe3b4186f6b6457e090600090a35050565b80516001600160a01b03811681146200010d57600080fd5b919050565b6000806040838503121562000125578182fd5b6200013083620000f5565b91506200014060208401620000f5565b90509250929050565b6139f780620001596000396000f3fe608060405234801561001057600080fd5b506004361061020b5760003560e01c80638da5cb5b1161012a578063c4937ab9116100bd578063db19da0d1161008c578063edd19b5d11610071578063edd19b5d146104b6578063f2fde38b146104c9578063faad994d146104dc57600080fd5b8063db19da0d1461048c578063dcbad90d1461049657600080fd5b8063c4937ab914610424578063c5f956af14610437578063c929ccf314610457578063d7a979c31461046a57600080fd5b80639ab425cb116100f95780639ab425cb146103c65780639c384653146103d95780639d8ca531146103f9578063b344c2b31461040c57600080fd5b80638da5cb5b146103795780638f6d9f351461039757806395fd42a1146103a057806398359fa1146103b357600080fd5b8063310c87cc116101a25780636be4097c116101715780636be4097c14610360578063715018a6146103695780637cb583bd1461021057806380a061601461037157600080fd5b8063310c87cc146103075780633f138d4b1461032757806369b9d03e1461033a5780636b8737881461034d57600080fd5b80632423807a116101de5780632423807a1461029f578063249167fc146102bf578063254ae891146102d457806330cf8320146102f457600080fd5b806307fb5a9c14610210578063089af9131461022c578063127effb2146102515780631fe86c6b14610296575b600080fd5b61021961012c81565b6040519081526020015b60405180910390f35b60075461023c9063ffffffff1681565b60405163ffffffff9091168152602001610223565b6003546102719073ffffffffffffffffffffffffffffffffffffffff1681565b60405173ffffffffffffffffffffffffffffffffffffffff9091168152602001610223565b61021960085481565b6102b26102ad366004613559565b6104e5565b6040516102239190613762565b6102d26102cd3660046134bd565b61061b565b005b600b546102719073ffffffffffffffffffffffffffffffffffffffff1681565b6102d2610302366004613589565b6108dc565b6005546102719073ffffffffffffffffffffffffffffffffffffffff1681565b6102d2610335366004613510565b610f14565b6102d26103483660046135d5565b611015565b6102d261035b366004613559565b611620565b61021960065481565b6102d2611694565b600654610219565b60015473ffffffffffffffffffffffffffffffffffffffff16610271565b61021960095481565b6102d26103ae366004613606565b6116a8565b6102d26103c13660046134a3565b611c15565b6102d26103d4366004613589565b611ecb565b6002546102719073ffffffffffffffffffffffffffffffffffffffff1681565b6102d2610407366004613559565b611f48565b60075461023c90640100000000900463ffffffff1681565b6102196104323660046135aa565b6122ce565b6004546102719073ffffffffffffffffffffffffffffffffffffffff1681565b6102d2610465366004613559565b6123b8565b61047d610478366004613510565b612626565b604051610223939291906136a7565b6102196205472c81565b600c546102719073ffffffffffffffffffffffffffffffffffffffff1681565b6102d26104c4366004613559565b612a86565b6102d26104d73660046134a3565b612ee9565b610219600a5481565b61053460408051610100810190915280600081526020016000815260200160008152602001600081526020016000815260200160008152602001600063ffffffff168152602001600081525090565b6000828152600d602052604090819020815161010081019092528054829060ff16600381111561058d577f4e487b7100000000000000000000000000000000000000000000000000000000600052602160045260246000fd5b60038111156105c5577f4e487b7100000000000000000000000000000000000000000000000000000000600052602160045260246000fd5b815260018201546020820152600282015460408201526003820154606082015260048201546080820152600582015460a0820152600682015463ffffffff1660c082015260079091015460e09091015292915050565b610623612fa0565b73ffffffffffffffffffffffffffffffffffffffff84166106a5576040517f08c379a000000000000000000000000000000000000000000000000000000000815260206004820152601660248201527f43616e6e6f74206265207a65726f20616464726573730000000000000000000060448201526064015b60405180910390fd5b73ffffffffffffffffffffffffffffffffffffffff8316610722576040517f08c379a000000000000000000000000000000000000000000000000000000000815260206004820152601660248201527f43616e6e6f74206265207a65726f206164647265737300000000000000000000604482015260640161069c565b73ffffffffffffffffffffffffffffffffffffffff821661079f576040517f08c379a000000000000000000000000000000000000000000000000000000000815260206004820152601660248201527f43616e6e6f74206265207a65726f206164647265737300000000000000000000604482015260640161069c565b73ffffffffffffffffffffffffffffffffffffffff811661081c576040517f08c379a000000000000000000000000000000000000000000000000000000000815260206004820152601660248201527f43616e6e6f74206265207a65726f206164647265737300000000000000000000604482015260640161069c565b6003805473ffffffffffffffffffffffffffffffffffffffff8681167fffffffffffffffffffffffff000000000000000000000000000000000000000092831681179093556004805487831690841681179091556002805487841690851681179091556005805493871693909416831790935560408051948552602085019190915283019190915260608201527ffaa5a6d898018caa25925a386a8fbac436351bde8b2aa41e5e59d05138e721b09060800160405180910390a150505050565b333b15610945576040517f08c379a000000000000000000000000000000000000000000000000000000000815260206004820152601460248201527f436f6e7472616374206e6f7420616c6c6f776564000000000000000000000000604482015260640161069c565b3332146109ae576040517f08c379a000000000000000000000000000000000000000000000000000000000815260206004820152601a60248201527f50726f787920636f6e7472616374206e6f7420616c6c6f776564000000000000604482015260640161069c565b60026000541415610a1b576040517f08c379a000000000000000000000000000000000000000000000000000000000815260206004820152601f60248201527f5265656e7472616e637947756172643a207265656e7472616e742063616c6c00604482015260640161069c565b6002600055336000908152600e602090815260408083208584529091529020805482908110610a73577f4e487b7100000000000000000000000000000000000000000000000000000000600052603260045260246000fd5b600091825260209091206004909102016002015473ffffffffffffffffffffffffffffffffffffffff163314610b05576040517f08c379a000000000000000000000000000000000000000000000000000000000815260206004820152600d60248201527f4e6f7420746865206f776e657200000000000000000000000000000000000000604482015260640161069c565b6000828152600d6020908152604080832060060154338452600e83528184208685529092528220805463ffffffff909216929184908110610b6f577f4e487b7100000000000000000000000000000000000000000000000000000000600052603260045260246000fd5b6000918252602080832060049290920290910160020180547fffffffffffffffffffffffff00000000000000000000000000000000000000001673ffffffffffffffffffffffffffffffffffffffff9490941693909317909255338152600e82526040808220868352909252908120805484908110610c17577f4e487b7100000000000000000000000000000000000000000000000000000000600052603260045260246000fd5b906000526020600020906004020160000154600014610d9b57336000908152600e602090815260408083208784529091529020805463ffffffff8416919085908110610c8c577f4e487b7100000000000000000000000000000000000000000000000000000000600052603260045260246000fd5b90600052602060002090600402016001015410158015610d965750336000908152600e60209081526040808320878452909152902063ffffffff831690610cd460018661388e565b81548110610d0b577f4e487b7100000000000000000000000000000000000000000000000000000000600052603260045260246000fd5b6000918252602080832060036004909302019190910154338352600e825260408084208985529092529120610d4160018761388e565b81548110610d78577f4e487b7100000000000000000000000000000000000000000000000000000000600052603260045260246000fd5b906000526020600020906004020160010154610d94919061388e565b105b610e0c565b336000908152600e602090815260408083208784529091529020805463ffffffff8416919085908110610df7577f4e487b7100000000000000000000000000000000000000000000000000000000600052603260045260246000fd5b90600052602060002090600402016001015410155b90508015610eb9576005546000858152600d6020526040908190206007015490517f42842e0e000000000000000000000000000000000000000000000000000000008152306004820152336024820152604481019190915273ffffffffffffffffffffffffffffffffffffffff909116906342842e0e90606401600060405180830381600087803b158015610ea057600080fd5b505af1158015610eb4573d6000803e3d6000fd5b505050505b604080518581526020810185905263ffffffff8416818301528215156060820152905133917f844adb01c6f0ac3a159670308d9c5c7d2bedf80df4ad12cca1c5beac1c2cab49919081900360800190a2505060016000555050565b610f1c612fa0565b600b5473ffffffffffffffffffffffffffffffffffffffff83811691161415610fa1576040517f08c379a000000000000000000000000000000000000000000000000000000000815260206004820152601360248201527f43616e6e6f742062652047465420746f6b656e00000000000000000000000000604482015260640161069c565b610fc273ffffffffffffffffffffffffffffffffffffffff83163383613021565b6040805173ffffffffffffffffffffffffffffffffffffffff84168152602081018390527f74545154aac348a3eac92596bd1971957ca94795f4e954ec5f613b55fab78129910160405180910390a15050565b60035473ffffffffffffffffffffffffffffffffffffffff163314611096576040517f08c379a000000000000000000000000000000000000000000000000000000000815260206004820152600c60248201527f4e6f74206f70657261746f720000000000000000000000000000000000000000604482015260640161069c565b6005546040517f70a0823100000000000000000000000000000000000000000000000000000000815230600482015260009173ffffffffffffffffffffffffffffffffffffffff16906370a082319060240160206040518083038186803b15801561110057600080fd5b505afa158015611114573d6000803e3d6000fd5b505050506040513d601f19601f820116820180604052508101906111389190613571565b1161119f576040517f08c379a000000000000000000000000000000000000000000000000000000000815260206004820152601560248201527f5072697a65204e4654206e6f742070726573656e740000000000000000000000604482015260640161069c565b6000811161122f576040517f08c379a000000000000000000000000000000000000000000000000000000000815260206004820152602160248201527f546f6b656e4964206d7573742062652067726561746572207468616e207a657260448201527f6f00000000000000000000000000000000000000000000000000000000000000606482015260840161069c565b600654158061128a575060036006546000908152600d602052604090205460ff166003811115611288577f4e487b7100000000000000000000000000000000000000000000000000000000600052602160045260246000fd5b145b6112f0576040517f08c379a000000000000000000000000000000000000000000000000000000000815260206004820152601960248201527f4e6f742074696d6520746f207374617274206c6f747465727900000000000000604482015260640161069c565b61012c6112fd428661388e565b11801561131557506205472c611313428661388e565b105b61137b576040517f08c379a000000000000000000000000000000000000000000000000000000000815260206004820152601f60248201527f4c6f7474657279206c656e677468206f757473696465206f662072616e676500604482015260640161069c565b600a54831015801561138f57506009548311155b6113f5576040517f08c379a000000000000000000000000000000000000000000000000000000000815260206004820152601160248201527f4f757473696465206f66206c696d697473000000000000000000000000000000604482015260640161069c565b61012c821015611461576040517f08c379a000000000000000000000000000000000000000000000000000000000815260206004820152601860248201527f446973636f756e742064697669736f7220746f6f206c6f770000000000000000604482015260640161069c565b60068054906000611471836138d1565b9091555050600780547fffffffffffffffffffffffffffffffffffffffffffffffff000000000000000016905560408051610100810190915280600181524260208083019190915260408083018890526060830187905260808301869052600060a0840181905260c0840181905260e09093018590526006548352600d90915290208151815482907fffffffffffffffffffffffffffffffffffffffffffffffffffffffffffffff00166001836003811115611556577f4e487b7100000000000000000000000000000000000000000000000000000000600052602160045260246000fd5b02179055506020828101516001830155604080840151600284015560608085015160038501556080850151600485015560a0850151600585015560c0850151600680860180547fffffffffffffffffffffffffffffffffffffffffffffffffffffffff000000001663ffffffff9093169290921790915560e090950151600790940193909355925483514281529182018890529281018690527f7745060911034707e68f2069481cb119df60e1d0ca97cb79d00dadfd83f7ad13910160405180910390a250505050565b611628612fa0565b8061168f576040517f08c379a000000000000000000000000000000000000000000000000000000000815260206004820152600b60248201527f4d757374206265203e2030000000000000000000000000000000000000000000604482015260640161069c565b600855565b61169c612fa0565b6116a660006130fa565b565b333b15611711576040517f08c379a000000000000000000000000000000000000000000000000000000000815260206004820152601460248201527f436f6e7472616374206e6f7420616c6c6f776564000000000000000000000000604482015260640161069c565b33321461177a576040517f08c379a000000000000000000000000000000000000000000000000000000000815260206004820152601a60248201527f50726f787920636f6e7472616374206e6f7420616c6c6f776564000000000000604482015260640161069c565b600260005414156117e7576040517f08c379a000000000000000000000000000000000000000000000000000000000815260206004820152601f60248201527f5265656e7472616e637947756172643a207265656e7472616e742063616c6c00604482015260640161069c565b600260005563ffffffff8116611859576040517f08c379a000000000000000000000000000000000000000000000000000000000815260206004820152601e60248201527f596f75206d75737420627574206174206c656173742031207469636b65740000604482015260640161069c565b6008548163ffffffff1611156118cb576040517f08c379a000000000000000000000000000000000000000000000000000000000815260206004820152601060248201527f546f6f206d616e79207469636b65747300000000000000000000000000000000604482015260640161069c565b60016000838152600d602052604090205460ff166003811115611917577f4e487b7100000000000000000000000000000000000000000000000000000000600052602160045260246000fd5b1461197e576040517f08c379a000000000000000000000000000000000000000000000000000000000815260206004820152601360248201527f4c6f7474657279206973206e6f74206f70656e00000000000000000000000000604482015260640161069c565b6000828152600d602052604090206002015442106119f8576040517f08c379a000000000000000000000000000000000000000000000000000000000815260206004820152600f60248201527f4c6f7474657279206973206f7665720000000000000000000000000000000000604482015260640161069c565b60078054829190600090611a1390849063ffffffff16613815565b82546101009290920a63ffffffff8181021990931691831602179091556000848152600d602052604081206004810154600390910154919350611a5a929091908516613171565b6040805160808101825260075463ffffffff6401000000008204811683529081166020830152339282018390528581166060830152600b549394509092611abf9273ffffffffffffffffffffffffffffffffffffffff9190911691309086906131a816565b6000848152600d602052604081206005018054849290611ae09084906137fd565b9091555050336000818152600e6020908152604080832088845282528083208054600180820183559185529383902086516004909502019384558583015190840155848101516002840180547fffffffffffffffffffffffff00000000000000000000000000000000000000001673ffffffffffffffffffffffffffffffffffffffff9092169190911790556060850151600390930192909255600754825163ffffffff8089168252640100000000909204909116918101919091528692917f7bd2db97c5811956925850fd6ebdb9a1e4af97398725a83e262b681686dbf828910160405180910390a360078054640100000000900463ffffffff16906004611be88361390a565b91906101000a81548163ffffffff021916908363ffffffff16021790555050505060016000819055505050565b611c1d612fa0565b6006541580611c78575060036006546000908152600d602052604090205460ff166003811115611c76577f4e487b7100000000000000000000000000000000000000000000000000000000600052602160045260246000fd5b145b611cde576040517f08c379a000000000000000000000000000000000000000000000000000000000815260206004820152601860248201527f4c6f7474657279206e6f7420696e20636c61696d61626c650000000000000000604482015260640161069c565b60065460075460408051602081019390935264010000000090910460e01b7fffffffff00000000000000000000000000000000000000000000000000000000169082015273ffffffffffffffffffffffffffffffffffffffff82169063b37217a490604401604080518083037fffffffffffffffffffffffffffffffffffffffffffffffffffffffffffffffe001815290829052805160209091012060e083901b7fffffffff000000000000000000000000000000000000000000000000000000001682526004820152602401600060405180830381600087803b158015611dc557600080fd5b505af1158015611dd9573d6000803e3d6000fd5b505050508073ffffffffffffffffffffffffffffffffffffffff1663a1c4f55a6040518163ffffffff1660e01b815260040160206040518083038186803b158015611e2357600080fd5b505afa158015611e37573d6000803e3d6000fd5b505050506040513d601f19601f82011682018060405250810190611e5b9190613635565b50600c80547fffffffffffffffffffffffff00000000000000000000000000000000000000001673ffffffffffffffffffffffffffffffffffffffff83169081179091556040517f383f8cb39dfa7c3fb901a460dd449ea924868f0a92ff03da64740fffa5f1de6290600090a250565b611ed3612fa0565b80821115611f3d576040517f08c379a000000000000000000000000000000000000000000000000000000000815260206004820152601b60248201527f6d696e5072696365206d757374206265203c206d617850726963650000000000604482015260640161069c565b600a91909155600955565b60035473ffffffffffffffffffffffffffffffffffffffff163314611fc9576040517f08c379a000000000000000000000000000000000000000000000000000000000815260206004820152600c60248201527f4e6f74206f70657261746f720000000000000000000000000000000000000000604482015260640161069c565b60026000541415612036576040517f08c379a000000000000000000000000000000000000000000000000000000000815260206004820152601f60248201527f5265656e7472616e637947756172643a207265656e7472616e742063616c6c00604482015260640161069c565b600260005560016000828152600d602052604090205460ff166003811115612087577f4e487b7100000000000000000000000000000000000000000000000000000000600052602160045260246000fd5b146120ee576040517f08c379a000000000000000000000000000000000000000000000000000000000815260206004820152601060248201527f4c6f7474657279206e6f74206f70656e00000000000000000000000000000000604482015260640161069c565b6000818152600d60205260409020600201544211612168576040517f08c379a000000000000000000000000000000000000000000000000000000000815260206004820152601060248201527f4c6f7474657279206e6f74206f76657200000000000000000000000000000000604482015260640161069c565b600c54600754604080516020810185905264010000000090920460e01b7fffffffff00000000000000000000000000000000000000000000000000000000169082015273ffffffffffffffffffffffffffffffffffffffff9091169063b37217a490604401604080518083037fffffffffffffffffffffffffffffffffffffffffffffffffffffffffffffffe001815290829052805160209091012060e083901b7fffffffff000000000000000000000000000000000000000000000000000000001682526004820152602401600060405180830381600087803b15801561224f57600080fd5b505af1158015612263573d6000803e3d6000fd5b5050506000828152600d602052604080822080547fffffffffffffffffffffffffffffffffffffffffffffffffffffffffffffff00166002179055518392507f8bc84e5d97533c428862626ac41fe7bc09b1ea2ed5e9e330d84092db8df153669190a2506001600055565b600061012c84101561233c576040517f08c379a000000000000000000000000000000000000000000000000000000000815260206004820152601f60248201527f4d757374206265203e3d204d494e5f444953434f554e545f44495649534f5200604482015260640161069c565b816123a3576040517f08c379a000000000000000000000000000000000000000000000000000000000815260206004820152601d60248201527f4e756d626572206f66207469636b657473206d757374206265203e2030000000604482015260640161069c565b6123ae848484613171565b90505b9392505050565b60035473ffffffffffffffffffffffffffffffffffffffff163314612439576040517f08c379a000000000000000000000000000000000000000000000000000000000815260206004820152600c60248201527f4e6f74206f70657261746f720000000000000000000000000000000000000000604482015260640161069c565b6005546040517f70a0823100000000000000000000000000000000000000000000000000000000815230600482015260009173ffffffffffffffffffffffffffffffffffffffff16906370a082319060240160206040518083038186803b1580156124a357600080fd5b505afa1580156124b7573d6000803e3d6000fd5b505050506040513d601f19601f820116820180604052508101906124db9190613571565b11612542576040517f08c379a000000000000000000000000000000000000000000000000000000000815260206004820152601560248201527f5072697a65204e4654206e6f742070726573656e740000000000000000000000604482015260640161069c565b600081116125d2576040517f08c379a000000000000000000000000000000000000000000000000000000000815260206004820152602160248201527f746f6b656e4964206d7573742062652067726561746572207468616e207a657260448201527f6f00000000000000000000000000000000000000000000000000000000000000606482015260840161069c565b6006546000908152600d602052604090819020600701829055517f8a1767404395cfcd1267c6537e872277dde277a29ac6dea742a111469f324a589061261b9083815260200190565b60405180910390a150565b73ffffffffffffffffffffffffffffffffffffffff82166000908152600e60209081526040808320848452909152812054606091829182918167ffffffffffffffff81111561269e577f4e487b7100000000000000000000000000000000000000000000000000000000600052604160045260246000fd5b6040519080825280602002602001820160405280156126c7578160200160208202803683370190505b50905060008267ffffffffffffffff81111561270c577f4e487b7100000000000000000000000000000000000000000000000000000000600052604160045260246000fd5b604051908082528060200260200182016040528015612735578160200160208202803683370190505b50905060008367ffffffffffffffff81111561277a577f4e487b7100000000000000000000000000000000000000000000000000000000600052604160045260246000fd5b6040519080825280602002602001820160405280156127a3578160200160208202803683370190505b50905060005b84811015612a765773ffffffffffffffffffffffffffffffffffffffff8a166000908152600e602090815260408083208c8452909152812080548390811061281a577f4e487b7100000000000000000000000000000000000000000000000000000000600052603260045260246000fd5b600091825260209091206002600490920201015473ffffffffffffffffffffffffffffffffffffffff16141561289a576001828281518110612885577f4e487b7100000000000000000000000000000000000000000000000000000000600052603260045260246000fd5b911515602092830291909101909101526128e6565b60008282815181106128d5577f4e487b7100000000000000000000000000000000000000000000000000000000600052603260045260246000fd5b911515602092830291909101909101525b73ffffffffffffffffffffffffffffffffffffffff8a166000908152600e602090815260408083208c8452909152902080548290811061294f577f4e487b7100000000000000000000000000000000000000000000000000000000600052603260045260246000fd5b90600052602060002090600402016001015484828151811061299a577f4e487b7100000000000000000000000000000000000000000000000000000000600052603260045260246000fd5b60209081029190910181019190915273ffffffffffffffffffffffffffffffffffffffff8b166000908152600e825260408082208c835290925220805482908110612a0e577f4e487b7100000000000000000000000000000000000000000000000000000000600052603260045260246000fd5b906000526020600020906004020160030154838281518110612a59577f4e487b7100000000000000000000000000000000000000000000000000000000600052603260045260246000fd5b602090810291909101015280612a6e816138d1565b9150506127a9565b5091955093509150509250925092565b60035473ffffffffffffffffffffffffffffffffffffffff163314612b07576040517f08c379a000000000000000000000000000000000000000000000000000000000815260206004820152600c60248201527f4e6f74206f70657261746f720000000000000000000000000000000000000000604482015260640161069c565b60026000541415612b74576040517f08c379a000000000000000000000000000000000000000000000000000000000815260206004820152601f60248201527f5265656e7472616e637947756172643a207265656e7472616e742063616c6c00604482015260640161069c565b60026000818155828152600d602052604090205460ff166003811115612bc3577f4e487b7100000000000000000000000000000000000000000000000000000000600052602160045260246000fd5b14612c2a576040517f08c379a000000000000000000000000000000000000000000000000000000000815260206004820152601160248201527f4c6f7474657279206e6f7420636c6f7365000000000000000000000000000000604482015260640161069c565b600c60009054906101000a900473ffffffffffffffffffffffffffffffffffffffff1673ffffffffffffffffffffffffffffffffffffffff1663fbe5d9176040518163ffffffff1660e01b815260040160206040518083038186803b158015612c9257600080fd5b505afa158015612ca6573d6000803e3d6000fd5b505050506040513d601f19601f82011682018060405250810190612cca9190613571565b8114612d32576040517f08c379a000000000000000000000000000000000000000000000000000000000815260206004820152601160248201527f4e756d62657273206e6f7420647261776e000000000000000000000000000000604482015260640161069c565b60075460009063ffffffff1615612e0a57600754600c54604080517fa1c4f55a000000000000000000000000000000000000000000000000000000008152905163ffffffff9093169273ffffffffffffffffffffffffffffffffffffffff9092169163a1c4f55a91600480820192602092909190829003018186803b158015612dba57600080fd5b505afa158015612dce573d6000803e3d6000fd5b505050506040513d601f19601f82011682018060405250810190612df29190613635565b612dfc919061392e565b612e07906001613815565b90505b6000828152600d6020526040902060068101805463ffffffff84167fffffffffffffffffffffffffffffffffffffffffffffffffffffffff0000000090911617905580547fffffffffffffffffffffffffffffffffffffffffffffffffffffffffffffff0016600317815560050154600454600b54612ea39173ffffffffffffffffffffffffffffffffffffffff918216911683613021565b60065460405163ffffffff841681527f5a724f8090e5112c7e2c0eca7eeba9abf1a26dfad55f3c06f87a281c6712add29060200160405180910390a25050600160005550565b612ef1612fa0565b73ffffffffffffffffffffffffffffffffffffffff8116612f94576040517f08c379a000000000000000000000000000000000000000000000000000000000815260206004820152602660248201527f4f776e61626c653a206e6577206f776e657220697320746865207a65726f206160448201527f6464726573730000000000000000000000000000000000000000000000000000606482015260840161069c565b612f9d816130fa565b50565b60015473ffffffffffffffffffffffffffffffffffffffff1633146116a6576040517f08c379a000000000000000000000000000000000000000000000000000000000815260206004820181905260248201527f4f776e61626c653a2063616c6c6572206973206e6f7420746865206f776e6572604482015260640161069c565b60405173ffffffffffffffffffffffffffffffffffffffff83166024820152604481018290526130f59084907fa9059cbb00000000000000000000000000000000000000000000000000000000906064015b604080517fffffffffffffffffffffffffffffffffffffffffffffffffffffffffffffffe08184030181529190526020810180517bffffffffffffffffffffffffffffffffffffffffffffffffffffffff167fffffffff000000000000000000000000000000000000000000000000000000009093169290921790915261320c565b505050565b6001805473ffffffffffffffffffffffffffffffffffffffff8381167fffffffffffffffffffffffff0000000000000000000000000000000000000000831681179093556040519116919082907f8be0079c531659141344cd1fd0a4f28419497f9722a3daafe3b4186f6b6457e090600090a35050565b600083826131808260016137fd565b61318a919061388e565b6131948486613851565b61319e9190613851565b6123ae919061383d565b60405173ffffffffffffffffffffffffffffffffffffffff808516602483015283166044820152606481018290526132069085907f23b872dd0000000000000000000000000000000000000000000000000000000090608401613073565b50505050565b600061326e826040518060400160405280602081526020017f5361666545524332303a206c6f772d6c6576656c2063616c6c206661696c65648152508573ffffffffffffffffffffffffffffffffffffffff166133189092919063ffffffff16565b8051909150156130f5578080602001905181019061328c9190613539565b6130f5576040517f08c379a000000000000000000000000000000000000000000000000000000000815260206004820152602a60248201527f5361666545524332303a204552433230206f7065726174696f6e20646964206e60448201527f6f74207375636365656400000000000000000000000000000000000000000000606482015260840161069c565b60606123ae84846000858573ffffffffffffffffffffffffffffffffffffffff85163b6133a1576040517f08c379a000000000000000000000000000000000000000000000000000000000815260206004820152601d60248201527f416464726573733a2063616c6c20746f206e6f6e2d636f6e7472616374000000604482015260640161069c565b6000808673ffffffffffffffffffffffffffffffffffffffff1685876040516133ca919061368b565b60006040518083038185875af1925050503d8060008114613407576040519150601f19603f3d011682016040523d82523d6000602084013e61340c565b606091505b509150915061341c828286613427565b979650505050505050565b606083156134365750816123b1565b8251156134465782518084602001fd5b816040517f08c379a000000000000000000000000000000000000000000000000000000000815260040161069c9190613711565b803573ffffffffffffffffffffffffffffffffffffffff8116811461349e57600080fd5b919050565b6000602082840312156134b4578081fd5b6123b18261347a565b600080600080608085870312156134d2578283fd5b6134db8561347a565b93506134e96020860161347a565b92506134f76040860161347a565b91506135056060860161347a565b905092959194509250565b60008060408385031215613522578182fd5b61352b8361347a565b946020939093013593505050565b60006020828403121561354a578081fd5b815180151581146123b1578182fd5b60006020828403121561356a578081fd5b5035919050565b600060208284031215613582578081fd5b5051919050565b6000806040838503121561359b578182fd5b50508035926020909101359150565b6000806000606084860312156135be578283fd5b505081359360208301359350604090920135919050565b600080600080608085870312156135ea578384fd5b5050823594602084013594506040840135936060013592509050565b60008060408385031215613618578182fd5b82359150602083013561362a816139af565b809150509250929050565b600060208284031215613646578081fd5b81516123b1816139af565b6000815180845260208085019450808401835b8381101561368057815187529582019590820190600101613664565b509495945050505050565b6000825161369d8184602087016138a5565b9190910192915050565b6060815260006136ba6060830186613651565b6020838203818501526136cd8287613651565b84810360408601528551808252828701935090820190845b818110156137035784511515835293830193918301916001016136e5565b509098975050505050505050565b60208152600082518060208401526137308160408501602087016138a5565b601f017fffffffffffffffffffffffffffffffffffffffffffffffffffffffffffffffe0169190910160400192915050565b8151610100820190600481106137a1577f4e487b7100000000000000000000000000000000000000000000000000000000600052602160045260246000fd5b808352506020830151602083015260408301516040830152606083015160608301526080830151608083015260a083015160a083015260c08301516137ee60c084018263ffffffff169052565b5060e092830151919092015290565b6000821982111561381057613810613951565b500190565b600063ffffffff80831681851680830382111561383457613834613951565b01949350505050565b60008261384c5761384c613980565b500490565b6000817fffffffffffffffffffffffffffffffffffffffffffffffffffffffffffffffff048311821515161561388957613889613951565b500290565b6000828210156138a0576138a0613951565b500390565b60005b838110156138c05781810151838201526020016138a8565b838111156132065750506000910152565b60007fffffffffffffffffffffffffffffffffffffffffffffffffffffffffffffffff82141561390357613903613951565b5060010190565b600063ffffffff8083168181141561392457613924613951565b6001019392505050565b600063ffffffff8084168061394557613945613980565b92169190910692915050565b7f4e487b7100000000000000000000000000000000000000000000000000000000600052601160045260246000fd5b7f4e487b7100000000000000000000000000000000000000000000000000000000600052601260045260246000fd5b63ffffffff81168114612f9d57600080fdfea26469706673582212209c1825d45c16d284e305378db3beb237c6ecfbe1140087bbaaab780b0dce46ce64736f6c63430008040033",
  "linkReferences": {},
  "deployedLinkReferences": {}
}